:020000040800F2
:1000000010170020C9000008213D0008B13C00087D
:1000100000000000000000000000000000000000E0
:100020000000000000000000000000008143000804
:100030000000000000000000194100088343000890
:10004000DB00000800000000DB000008DB00000807
:10005000DB000008F1190008DB000008DB000008E5
:1000600000000000DB000008B9190008DB000008F0
:10007000DB000008DB000008DB00000800000000D7
:1000800099440008000000000000000079440008C6
:1000900089440008DB000008DB000008DB000008E2
:1000A000DB000008DB000008DB000008D94A00087C
:1000B000E94A00080348854600F050F80048004728
:1000C000695700081017002004488047044800477B
:1000D000FEE7FEE7FEE7FEE7FEE7FEE70544000871
:1000E000B500000830B50B4601460020202201244F
:1000F00009E00D46D5409D4205D31D469540491B5C
:100100002546954040191546521E002DF1DC30BDA4
:1001100070B500242546002801DA01244042002958
:1001200001DA01254942FFF7DDFFAC4200D0404231
:10013000002C00D0494270BD10B5202A04DB0846CF
:10014000203AD040002110BD0B46D340D04020249F
:10015000A21A91400843194610BD0000064C012523
:10016000064E05E0E36807CC2B430C3C984710345F
:10017000B442F7D3FFF7A2FFDC5B0008FC5B00088A
:1001800070B58C180578401C6B075B0F01D10378A4
:10019000401C2A1106D10278401C03E006780E703C
:1001A000401C491C5B1EF9D12B0705D40023521EAD
:1001B0000DD40B70491CFAE70378401CCB1A921C33
:1001C00003E01D780D70491C5B1C521EF9D5A1423D
:1001D000D8D3002070BD000000B587B000BF2F4805
:1001E00040690121490408432C4948610846406997
:1001F000012149040840019000BF00BF00BF27480B
:1002000080690912084325498861084680694915B3
:100210000840019000BF00BF14200290032003900B
:100220000020049002A90920C00602F0A9FA1C4887
:100230001C4908604005486000211A488161C1617D
:100240008160012101610021C160016201214162DF
:10025000FF21C23181620021C1620421416100217C
:100260000163416301F054FE0E4801F027FD0220B6
:100270000D4908600120486000078860094801F0C6
:100280007FFD04200849086002204860C00688609D
:10029000044801F075FD07B000BD000000100240E9
:1002A0000024014098110020E411002070B504469C
:1002B000002520688068042108408008002829D093
:1002C00020688068084000280BD0206880680221E0
:1002D0000840002805D12068806810210843216863
:1002E000886002F055FB05460EE002F051FB401B12
:1002F000022809D9606C102108436064A06C0121B8
:100300000843A064012070BD206880680421084073
:100310000028EAD10020F6E770B5044600252068E1
:1003200080688007800F01280ED120680068C00710
:10033000C00F002806D12068C0680121C903084009
:10034000884201D1012000E00020002837D0206839
:10035000806805210840012800D100E00020002825
:100360000AD000BF206880680221084321688860A5
:1003700003202168086009E0606C10210843606474
:10038000A06C01210843A064012070BD02F000FBB5
:1003900005460EE002F0FCFA401B022809D9606C09
:1003A000102108436064A06C01210843A06401206F
:1003B000EBE720688068C007C00F0028EAD1002062
:1003C000E3E7000038B504460025002000902068CF
:1003D00080688007800F01280ED120680068C00760
:1003E000C00F002806D12068C0680121C903084059
:1003F000884201D1012000E00020002843D120687C
:10040000806822490840002801D1012000E0002036
:10041000002809D1606C102108436064A06C0121A0
:100420000843A064012038BD20688068012108438A
:1004300021688860164917480068FFF753FE00904E
:1004400002E00098401E009000980028F9D102F0C8
:100450009FFA05460EE002F09BFA401B022809D9DC
:10046000606C102108436064A06C01210843A06403
:100470000120D8E720680068C007C00F012148406C
:1004800048400028E7D00020CDE70000170000809A
:1004900040420F007400002070B5054600BF1B48A5
:1004A00001F08AFE2946194801F013FE174801F0B1
:1004B0002BFD044664206043000B6421081A144994
:1004C0000870124801F078FE1421104801F001FE76
:1004D0000E4801F019FD044664206043000B6421BE
:1004E000081A0C49087008460078632801DD63206B
:1004F000087007480078632802DD6320044908700B
:10050000024801F095FEA0B270BD000098110020D5
:100510006C0000206B00002010B5244800780128F2
:1005200036D100220221224802F02BFA214800781D
:10053000012825D120480068FF21F53188420ED9D5
:10054000012211020920C00602F01BFA002201213B
:10055000174802F016FA00201749086024E01648F0
:100560000068642820D90022FF2101310920C0063B
:1005700002F007FA012211460D4802F002FA13E0D8
:100580000022FF2101310920C00602F0FAF90BE038
:1005900001220221064802F0F4F90022FF21013174
:1005A0000920C00602F0EDF910BD00001000002087
:1005B00000040048210000201400002010B59948D4
:1005C0000078002800D010BD0A2197480068FFF786
:1005D00089FD9649441822460021282003F0DAFCC0
:1005E0000A2191480068FFF77DFD90480C182246CB
:1005F0000021302003F0CEFC0A218D480068FFF76F
:1006000071FD8A49441822460221282003F0C2FCC9
:100610000A2187480068FFF765FD84480C182246C8
:100620000221302003F0B6FC0A2182480078FFF74F
:100630006FFD7E49441822460421282003F0AAFCBD
:100640000A217C480078FFF763FD78480C182246A1
:100650000421302003F09EFC0A2177480078FFF740
:1006600057FD7249441822460621282003F092FCC7
:100670000A2171480078FFF74BFD6C480C182246A0
:100680000621302003F086FC00206C4908706C487D
:1006900000786C49097888421FD06348006868492F
:1006A0000978884205D86048006866490978884218
:1006B0000BD201206149087063A20021402003F0A1
:1006C000A5FC01206149087007E061A200214020DB
:1006D00003F09CFC00205D4908705E4800785E498C
:1006E000097888421FD0524800685A4909788842E0
:1006F00005D84F4800685849097888420BD2012034
:100700004E49087050A20221402003F07FFC0120D6
:100710005249087007E04EA20221402003F076FC07
:1007200000204E4908704E4800784E4909788842AA
:100730001FD0404800784A490978884205DC3D4886
:1007400000784849097888420BDA01203B49087053
:100750003DA20421402003F059FC012042490870C9
:1007600007E03BA20421402003F050FC00203E495A
:1007700008703E4800783E49097888421FD02E48CC
:1007800000783A490978884205DC2B4800783849D6
:10079000097888420BDA0120284908702AA206212C
:1007A000402003F033FC01203249087007E028A202
:1007B0000621402003F02AFC00202E4908700A215F
:1007C00020480078FFF7A4FC18494418224600216D
:1007D000482003F0DFFB0A211F480078FFF798FC50
:1007E0001249441822460221482003F0D3FB0A2173
:1007F0001C480078FFF78CFC0C4944182246042161
:10080000482003F0C7FB0A2119480078FFF780FC55
:100810000649441822460621482003F0BBFB00BFCE
:10082000D1E6000023000020600C00209200002090
:10083000640C00206B0000206C00002021000020D0
:10084000090000200800002078000000250000209A
:10085000200000000B0000200A00002026000020DD
:100860000D0000200C000020270000200F000020B9
:100870000E0000202800002070B5012603F08EFA3B
:10088000002421E021461231CAB22107080E0021BE
:1008900003F058FB21461431CAB22107080E022189
:1008A00003F050FB21461A31CAB22107080E042179
:1008B00003F048FB21461C31CAB22107080E06216D
:1008C00003F040FB601CC4B2022CDBDB8DA20021D4
:1008D000202003F09BFB8DA20221202003F096FB39
:1008E0008AA20421202003F091FB88A20621202067
:1008F00003F08CFB0A21874801F028F9864800782C
:10090000FF2827D084484078FF2823D082480078E9
:100910008249087080484078814908707E48807814
:10092000804908707C48C0787F4908707A4800790F
:100930007E490870784840797D490870764880790A
:100940007C4908707448C0797B4908707248007A05
:100950007A4908700A2171480078FFF7D9FB784975
:1009600045182A460021482003F014FB0A216B4851
:100970000078FFF7CDFB72480D182A460021502061
:1009800003F008FB6FA20021582003F03FFB0A216F
:1009900063480078FFF7BCFB694945182A460021E7
:1009A000682003F0F7FA0A215D480078FFF7B0FBF2
:1009B00063480D182A460021702003F0EBFA0A2143
:1009C00058480078FFF7A4FB5D4945182A460221E4
:1009D000482003F0DFFA0A2152480078FFF798FB1D
:1009E00057480D182A460221502003F0D3FA57A287
:1009F0000221582003F00AFB0A214B480078FFF738
:100A000087FB4F4945182A460221682003F0C2FAA5
:100A10000A2145480078FFF77BFB49480D182A4614
:100A20000221702003F0B6FA0A2140480078FFF74F
:100A30006FFB434945182A460421482003F0AAFACF
:100A40000A213A480078FFF763FB3D480D182A4613
:100A50000421502003F09EFA3CA20421582003F008
:100A6000D5FA0A2132480078FFF752FB344945187D
:100A70002A460421682003F08DFA0A212C480078C8
:100A8000FFF746FB2E480D182A460421702003F07C
:100A900081FA0A2127480078FFF73AFB28494518D0
:100AA0002A460621482003F075FA0A2121480078D9
:100AB000FFF72EFB22480D182A460621502003F08E
:100AC00069FA22A20621582003F0A0FA0A211A4846
:100AD0000078FFF71DFB1A4945182A4606216820B1
:100AE00003F058FA0A2114480078FFF711FB144864
:100AF0000D182A460621702003F04CFAFFF75EFD20
:100B000070BD00003A202043000000003A2020255C
:100B10000000000000F8000860100020080000201D
:100B2000090000200A0000200B0000200C0000201B
:100B30000D0000200E0000200F00002010000020FB
:100B400092000020432D202043000000252D20206E
:100B50002500000010B5084800687D21C9008842C2
:100B600009D900F059FE0A20FFF796FCFFF726FD91
:100B700000200149086010BD3800002070B504F065
:100B80008DFDFA49087008460078012872D00228C5
:100B900071D0042870D1F6480078401CF4490870E0
:100BA00008460078030004F0ABF80A4B064C688650
:100BB0009FBDD6F6F44B03F0F1F80A21ED4800781A
:100BC000FFF7A6FAEC4945182A460021242003F035
:100BD000E1F90A21E7480078FFF79AFAE6480D188C
:100BE0002A4600212C2003F0D5F9E4A2002134206C
:100BF00003F00CFA002421E021461231CAB2210789
:100C0000080E002103F09EF921461431CAB22107D3
:100C1000080E022103F096F921461A31CAB22107C3
:100C2000080E042103F08EF921461C31CAB22107B7
:100C3000080E062103F086F9601CC4B2022CDBDB2F
:100C40003DE10A21CF480078FFF762FACA4945180A
:100C50002A460021442003F09DF90A21C948007862
:100C6000FFF756FAC4480D182A4600214C2003F01D
:100C700091F924E125E17AE278E20A21C24800787C
:100C8000FFF746FABC4945182A460221242003F002
:100C900081F90A21BC480078FFF73AFAB6480D18E6
:100CA0002A4602212C2003F075F9B8A20221342033
:100CB00003F0ACF903E10A21B6480078FFF728FAFF
:100CC000AD4945182A460221442003F063F90A2160
:100CD000B0480078FFF71CFAA7480D182A460221F1
:100CE0004C2003F057F9EAE00A21AB480078FFF7FF
:100CF0000FFAA14945182A460421242003F04AF995
:100D00000A21A5480078FFF703FA9B480D182A46E8
:100D100004212C2003F03EF99CA20421342003F08E
:100D200075F9CCE00A219D480078FFF7F1F9924966
:100D300045182A460421442003F02CF90A2197483B
:100D40000078FFF7E5F98C480D182A4604214C205D
:100D500003F020F9B3E00A2191480078FFF7D8F9B1
:100D6000854945182A460621242003F013F90A2153
:100D70008B480078FFF7CCF97F480D182A460621EA
:100D80002C2003F007F981A20621342003F03EF95C
:100D900095E019E0FFE70A2182480078FFF7B8F9EB
:100DA000754945182A460621442003F0F3F80A2124
:100DB0007C480078FFF7ACF96F480D182A460621E9
:100DC0004C2003F0E7F87AE000206949087001211F
:100DD000754800F0A5FE01F0ABFC6A4800780002FF
:100DE000644909780843C31705462A466E4901201D
:100DF00001F040FC67480078000263490978084325
:100E0000C31705462A466849891C012001F032FCB7
:100E1000624800780002604909780843C317054614
:100E20002A466149091D012001F024FC5D48007833
:100E300000025B4909780843C31705462A465A4908
:100E4000891D012001F016FC58480078000257491E
:100E500009780843C31705462A465349083101203B
:100E600001F008FC01F0FCFB0A214F4800F06EFE87
:100E70004F4800783F4908704D4840784149087014
:100E80004B488078404908704948C078414908700B
:100E90004748007940490870454840793F49087003
:100EA000434880793E4908704148C0793D490870FF
:100EB0003F48007A3D490870FFF7DEFC00BF00BFE5
:100EC000F8E22B480078030003F01AFF0906072B0D
:100ED0007498BCE0FCFB060047E126480078401C03
:100EE0002449087008460078632801DD0020087056
:100EF0000A2120480078FFF70BF91F4945182A46B8
:100F00000021242003F046F80A211A480078FFF750
:100F1000FFF819480D182A4600212C2003F03AF852
:100F200023E118480078401C1649087008460078EC
:100F3000632801DD002008700A2112480078FFF7BD
:100F4000E7F80D4945182A460021442003F022F80D
:100F50000A210C480078FFF7DBF807480D182A46ED
:100F600000214C2003F016F8FFE000006000002094
:100F7000230000200800002092000020432D2020A4
:100F800043000000090000200A000020252D202039
:100F9000250000000B0000200C0000200D000020A8
:100FA0000E0000200F00002000F8000810000020B4
:100FB00060100020FC480078401CFB49087008467F
:100FC0000078632801DD002008700A21F6480078C7
:100FD000FFF79EF8F54945182A460221242002F021
:100FE000D9FF0A21F0480078FFF792F8EF480D1872
:100FF0002A4602212C2002F0CDFFB6E0EC48007812
:10100000401CEB49087008460078632801DD002089
:1010100008700A21E6480078FFF77AF8E349451896
:101020002A460221442002F0B5FF0A21E048007858
:10103000FFF76EF8DD480D182A4602214C2002F019
:10104000A9FF92E0DB480078401CDA4908700846A6
:101050000078632801DD002008700A21D548007857
:10106000FFF756F8D14945182A460421242002F0FA
:1010700091FF0A21CF480078FFF74AF8CB480D18B6
:101080002A4604212C2002F085FF6EE0CA48007831
:10109000401CC949087008460078632801DD00201B
:1010A00008700A21C4480078FFF732F8BF49451894
:1010B0002A460421442002F06DFF0A21BE48007830
:1010C00001E02EE009E0FFF723F8B8480D182A46A2
:1010D00004214C2002F05EFF47E0B8480078401C35
:1010E000B649087008460078632801DD00200870C2
:1010F0000A21B2480078FFF70BF8AC4945182A4698
:101100000621242002F046FF0A21AC480078FEF7B1
:10111000FFFFA6480D182A4606212C2002F03AFFB0
:1011200023E0A7480078401CA549087008460078CD
:10113000632801DD002008700A21A1480078FEF72D
:10114000E7FF9A4945182A460621442002F022FF6B
:101150000A219B480078FEF7DBFF94480D182A46C9
:1011600006214C2002F016FF00BF00BFA2E1954807
:101170000078030003F0C4FD09065F83A7CBF3F1F9
:10118000F0EF5E0090480078002803D000208E49E0
:10119000087002E001208C49087001218B4800F0A2
:1011A000BFFC01F0C5FA8A48007800028949097835
:1011B0000843C31705462A468449012001F05AFA1C
:1011C0007B4800780002784909780843C317054630
:1011D0002A467E49891C012001F04CFA76480078A5
:1011E0000002744909780843C31705462A4677491F
:1011F000091D012001F03EFA7148007800026F4994
:1012000009780843C31705462A467049891D0120FD
:1012100001F030FA6C48007800026B490978084305
:10122000C31705462A4669490831012001F022FA10
:1012300001F016FA3CE167480078401E65490870E5
:1012400008460078FF2801D1632008700A21614810
:101250000078FEF75DFF554945182A4600212420F5
:1012600002F098FE0A215B480078FEF751FF4F48D4
:101270000D182A4600212C2002F08CFE18E154485B
:101280000078401E5249087008460078FF2801D1B6
:10129000632008700A214E480078FEF739FF434961
:1012A00045182A460021442002F074FE0A214848CD
:1012B0000078FEF72DFF3D480D182A4600214C20EE
:1012C00002F068FEF4E038480078401E36490870A5
:1012D00008460078FF2801D1632008700A213248AF
:1012E0000078FEF715FF314945182A4602212420CF
:1012F00002F050FE0A212C480078FEF709FF2B4827
:101300000D182A4602212C2002F044FED0E0284885
:101310000078401E2649087008460078FF2801D151
:10132000632008700A2122480078FEF7F1FE1F4969
:1013300045182A460221442002F02CFE0A211C48AE
:101340000078FEF7E5FE19480D182A4602214C20C8
:1013500002F020FEACE087E062E03DE0FFE71548E8
:101360000078401E1349087008460078FF2801D114
:10137000632008700A210F480078FEF7C9FE0B4968
:1013800045182A460421242002F004FE0A210948B7
:101390000078FEF7BDFE05480D182A4604212C20D2
:1013A00002F0F8FD84E000000A0000209200002016
:1013B0000B0000200C0000200D0000200E0000207B
:1013C0000F000020230000201000002000F800087B
:1013D000090000200800002037480078401E3649E8
:1013E000087008460078FF2801D1632008700A21A0
:1013F00031480078FEF78CFE304945182A46042112
:10140000442002F0C7FD0A212B480078FEF780FE39
:101410002A480D182A4604214C2002F0BBFD47E063
:1014200027480078401E2649087008460078FF28A3
:1014300001D1632008700A2121480078FEF768FE78
:101440001E4945182A460621242002F0A3FD0A2140
:101450001B480078FEF75CFE18480D182A46062146
:101460002C2002F097FD23E016480078401E154915
:10147000087008460078FF2801D1632008700A210F
:1014800010480078FEF744FE0C4945182A4606210C
:10149000442002F07FFD0A210A480078FEF738FE5A
:1014A00006480D182A4606214C2002F073FD00BFA5
:1014B00000BF00BF00BF70BD0D00002092000020E3
:1014C0000E0000200F00002070B53548007800287D
:1014D00064D000203249087032480078662806D06F
:1014E0006D280CD1304800783049087008E02E484B
:1014F00000782F49087000202C49087000E000BFD8
:1015000000BF01212B4800F00BFB01F011F92A4824
:1015100000780002294909780843C3170446224687
:101520002449012001F0A6F8254800780002254949
:1015300009780843C317044622461E49891C012026
:1015400001F098F820480078000220490978084303
:10155000C317044622461749091D012001F08AF8E5
:101560001B48007800021B4909780843C31704464A
:1015700022461049891D012001F07CF80B480078B3
:1015800000020A4909780843C3170446224609495C
:101590000831012001F06EF801F062F870BD000022
:1015A0005A0C0020580C0020590C0020100000207C
:1015B0002200002000F80008090000200800002098
:1015C0000B0000200A0000200D0000200C0000206D
:1015D0000F0000200E00002010B50F4800780128F1
:1015E00000D110BD0D4800680D490968884208D92E
:1015F000002201210B4801F0C4F9002007490860CE
:1016000008E006480068642804D90122114605480C
:1016100001F0B7F900BFE4E72100002044000020FA
:10162000480000200004004870B5FFF74DFF5B48FC
:1016300000687D21C90088427ED959480078401C45
:101640005749087008460078012801DD002008701D
:1016500053480078002802D0012802D102E002F0AD
:101660004FFB96E05A204F49087048700C20887054
:101670000120C87008714C480068C0B20446054695
:101680000A212046FEF72EFD04010A212846FEF716
:1016900029FD0D46204628434249487143480068C9
:1016A000C0B2044605460A212046FEF71BFD040190
:1016B0000A212846FEF716FD0D46204628433949E3
:1016C00088713B480078044605460A212046FEF70B
:1016D00009FD04010A212846FEF704FD0D462046B7
:1016E00028433049C87133480078044605460A212A
:1016F0002046FEF7F7FC04010A212846FEF7F2FC1B
:101700000D4620462843274908722B480078487226
:101710002A480078887229480078012813D128487F
:10172000007800280BD127480078002807D1012035
:1017300023490870234900E02FE0087008E00020EA
:101740001F49087004E000201D4908701D490870F9
:101750001B4800781349C8721B48007808731B485F
:10176000007848731A48007888731A480078C8735C
:10177000A5200874002606E00A48815D022004F0D6
:10178000E1F9701CC6B207488078401DB042F3DC16
:1017900000BF00BF00200149086070BD540C00204C
:1017A000500C002010120020600C0020640C00205F
:1017B0006B0000206C0000201000002021000020A1
:1017C0005B0C00205C0C002025000020260000207F
:1017D000270000202800002000B585B002200090DE
:1017E0000020019002900320039069460920C00662
:1017F00000F0C6FF05B000BD00B585B00220009026
:101800000120019002900320039069460920C00640
:1018100000F0B6FF05B000BDF8B5FFF7EDFF002200
:1018200002210920C00601F0ACF8192003F06CFB7E
:10183000012202210920C00601F0A3F8FFF7CCFF26
:10184000642003F073FB02210920C00601F090F828
:1018500000285FD1304C00E0641E02210920C00640
:1018600001F086F8002801D1002CF5D12A4C00E0C7
:10187000641E02210920C00601F07AF8012801D176
:10188000002CF5D100F058F82449087000F054F805
:101890002349087000F050F82249087000F04CF815
:1018A0002149087000F048F8204908701B4800786A
:1018B0001B49097840181B49097840181A490978CA
:1018C00040181A490978884224D10A21154800781D
:1018D000FEF71EFCC5B20A2112480078FEF718FC7C
:1018E000CEB20A210D480078FEF712FCC7B20A21D9
:1018F0000A480078FEF70CFCC8B200900A20684342
:1019000080190B4908600A2039464143009808189D
:1019100008490860F8BD000050C30000710C0020A9
:10192000700C0020720C0020730C0020740C00203E
:10193000600C0020640C002038B5002532E0002047
:1019400000901B4C00E0641E02210920C00601F03B
:101950000FF8002801D1002CF5D1502003F0E6FA51
:1019600002210920C00601F003F8012800D10090EF
:101970000F4C00E0641E02210920C00600F0F8FFB1
:10198000012801D1002CF5D10A480068400009491E
:1019900008600846006869460978084305490860F8
:1019A000681CC5B2082DCADB0248006838BD0000BB
:1019B00050C30000680C002010B50449086E00F008
:1019C0005FFC0249486E00F05BFC10BD040E002075
:1019D00010B5046863604468102C04D10468A260E8
:1019E0000468E16003E00468A1600468E26010BD7F
:1019F00010B5012000F0B4FE10BD00000020074922
:101A0000C861074800690421084305490861084680
:101A1000006940210843024908617047F011002025
:101A2000002002400021084AD161084909690222C8
:101A30001143064A11611146486109694022114368
:101A4000024A116170470000F0110020002002409E
:101A50000022054BDA61054A126901231A43034B40
:101A60001A61018070470000F01100200020024040
:101A700000200F49C96810221140102907D10D49D3
:101A8000C969022211430B4AD16110210843084958
:101A9000C96804221140042907D10649C9690122F5
:101AA0001143044AD161042108430149C8607047C9
:101AB00000200240F011002070B5044600F068FFDD
:101AC00005460BE0601C002808D0002C04D000F074
:101AD0005FFF401BA04201D9032070BD0F48C068C2
:101AE000C007C00F0028EDD10C48C0682021084075
:101AF000202801D10949C8600848C0681021084061
:101B0000102805D00548C06804210840042803D1E6
:101B1000FFF7AEFF0120E0E70020DEE700200240F3
:101B20007FB505460C460020039000F001FE002022
:101B300000900195029403A9684600F03BFD00F077
:101B40008FFD7FBD01B50098007808BD70B50646D1
:101B50000D46FF203730854200DB451E002407E09C
:101B60003046761CFFF7EEFF03490855601C84B22F
:101B7000AC42F5DB70BD00006010002077B583B08B
:101B80000C46164600F0D4FD002510E060780002F7
:101B900022781043C2170192009003984119012046
:101BA000019B009A00F066FDA41CA81CC5B2B542BA
:101BB000ECDB00F055FD06B070BD000000B587B04D
:101BC00000BF3B4840690121890408433849486106
:101BD00008464069012189040840019000BF00BF08
:101BE00000BF33484069490008433149486108460D
:101BF00040690121C9040840019000BF00BF00BF37
:101C00002B484069891008432949486108464069C2
:101C1000012149040840019000BF00BF0320029049
:101C20000120039004900320059002A9214800F0B0
:101C3000A7FDFF20013002900120039004900320B3
:101C4000059002A90920C00600F09AFD002201219A
:101C50004903194800F095FE01204003029001203D
:101C6000039004900320059002A9134800F088FD1A
:101C70004020029000200390012004900320059052
:101C800002A90920C00600F07BFD0022FF210131DE
:101C90000920C00600F075FE00220221054800F070
:101CA00070FE01221146034800F06BFE07B000BD34
:101CB00000100240000400480008004870B50446C7
:101CC0000025002600BF4020005D012801D1022030
:101CD00070BD01214020015500BF20688068800749
:101CE000800F01280CD1206800680840002805D129
:101CF0002068C068C9030840884201D1012000E083
:101D0000002000282FD1606CFF210131884302217F
:101D100008436064206880688907084321688860F8
:101D200000F036FE064611E000F032FE801B02286D
:101D30000CD9606C0221884310210843606400BF05
:101D400000214020015500BF0120C1E720688068C4
:101D5000C00FC0070028E7D1606C02218843012131
:101D60000843606404E0606C20210843606401253E
:101D700000BF00214020015500BF2846A8E7000011
:101D8000F8B504460D460026002000900121090701
:101D9000A06B884215D0A06B012812D0A06B02283E
:101DA0000FD0A06B03280CD0A06B042809D0A06B27
:101DB000052806D0A06B062803D0A06B072800D00A
:101DC00000BF00BF4020005D012801D10220F8BD06
:101DD00001214020015500BF20688068042108408F
:101DE000800800287BD14449686888425BD020681D
:101DF000806A2A7801219140084321688862012184
:101E00000907A06B884229D0A06B012826D0A06BBF
:101E1000022823D0A06B032820D0A06B04281DD05B
:101E2000A06B05281AD0A06B062817D0A06B072836
:101E300014D0A868216849694907490F88420DD024
:101E400020684069C008C000216848612068406976
:101E5000297A4907490F08432168486128681028F2
:101E600002D0286811283FD12448806829681029A9
:101E700001D1C90401E00121890508431F49886097
:101E80002868102830D11E491E480068FEF72AF93C
:101E90000A214843009002E00098401E00900098FC
:101EA0000028F9D120E02068806A2A780121914039
:101EB0008843216888622868102802D02868112881
:101EC00012D10E4880682968102902D1C90402E0A5
:101ED00005E00121890588430849886004E0606CB9
:101EE000202108436064012600BF002140200155E5
:101EF00000BF30466BE700000110000000270140E2
:101F000040420F007400002001460868006C7047D2
:101F100070B5044600260025002C01D1012070BDBB
:101F2000606C002806D1A0640021402001552046A5
:101F300000F0CEF8606C1021084000287ED1002E01
:101F4000FCD1206880680421084080080028F5D171
:101F5000606C8901884302210843606420688068BE
:101F60008007800F01280DD120680068C007C00FCE
:101F7000002805D12068C06889030840884201D143
:101F8000012000E0002000280FD12068C06818213F
:101F90008843A16808432168C86020680069800000
:101FA000800861680843216808612068C068464964
:101FB00008402168C860A0698003E169C90308433B
:101FC000216A49030843616B012902D001210903F9
:101FD00000E000210843E16808432169022901D19A
:101FE000042100E000210843216B49000843054318
:101FF000606A01280ED1206A002803D10120000464
:10200000054307E0606C202108436064A06C012157
:102010000843A064FF21C231A06A884203D0E16A6C
:10202000A06A084305432068C06828432168C86047
:1020300001210907A06B884216D000E03DE0A06BAB
:10204000012811D0A06B02280ED0A06B03280BD062
:10205000A06B042808D0A06B052805D0A06B06282B
:1020600002D0A06B07280DD120684069C008C000CD
:102070002168486120684069218F4907490F08435A
:10208000216848612068C06810490840A84208D10A
:102090000020A064606C0221884301210843606431
:1020A00010E0606C02218843102108436064A06C3A
:1020B00001210843A064012604E0606C102108435C
:1020C0006064012630462AE71902FEFFE7FF3F83DE
:1020D0007047F8B504460D466069082801D1082705
:1020E00011E02068C068C007C00F00280AD0606CEB
:1020F00020210843606400BF00214020015500BF3B
:102100000120F8BD0C2700F043FC064614E0681CD3
:10211000002811D0002D04D000F03AFC801BA8420A
:102120000AD9606C04210843606400BF002140208C
:10213000015500BF0320E4E720680068384000280C
:10214000E5D0606C01214902084360642068C068E2
:10215000032189020840002825D1206A002822D1C5
:10216000206800680821084008281CD12068806881
:1021700004210840800800280DD1206840680C2107
:10218000884321684860606CFF2101318843012148
:102190000843606407E0606C202108436064A06C21
:1021A00001210843A064A069002802D10C20216805
:1021B00008600020A5E7000070B5044600252068EF
:1021C000806804210840800800282BD100BF4020EF
:1021D000005D012801D1022070BD01214020015580
:1021E00000BFE069012803D02046FEF7EBF8054662
:1021F000002D18D1606C0D490840FF2101310843C2
:1022000060640020A06400BF00214020015500BF91
:102210001C20216808602068806804210843216828
:10222000886000E002252846D6E70000FEF1FFFFA7
:1022300070B50446002500BF4020005D012801D193
:10224000022070BD01214020015500BF2046FEF74D
:102250002DF80546002D0CD12046FEF75DF8054609
:10226000002D06D1606CFF21013188430121084314
:10227000606400BF00214020015500BF2846E0E710
:1022800010B5044696480068954A08322168914284
:1022900001D1082117E0924A1C322168914201D1F4
:1022A000802110E08E4A30322168914201D1C91458
:1022B00009E08B4A44322168914202D10121C903CD
:1022C00001E00121C904084000283ED020680068D0
:1022D00008210840C008002837D0206800688843DB
:1022E000216808607E4908312068884201D10820B1
:1022F00017E07B491C312068884201D1802010E022
:10230000774930312068884201D1C01409E074490E
:1023100044312068884202D10120C00301E001203D
:10232000C0046F494860A06B01210843A0630421E9
:102330002120015500BF00212020015500BF206B46
:10234000002802D02046216B884765480068644A0F
:1023500008322168914201D1042117E0604A1C3201
:102360002168914201D1402110E05D4A303221685C
:10237000914201D1091509E0594A4432216891423C
:1023800002D10121890301E00121890408400028CC
:102390003CD020680068042108408008002835D01F
:1023A0002068006820210840002805D120680068C6
:1023B000042188432168086049490831206888421F
:1023C00001D1042017E046491C312068884201D120
:1023D000402010E0424930312068884201D1001588
:1023E00009E03F4944312068884202D1012080033E
:1023F00001E0012080043A49486011212120015563
:10240000E06A002802D02046E16A88473448006824
:10241000334A08322168914201D1022117E0304A43
:102420001C322168914201D1202110E02C4A303227
:102430002168914201D1491509E0294A44322168B5
:10244000914202D10121490301E0012149040840E0
:10245000002843D020680068022108404008002876
:102460003CD02068006820210840002805D1206861
:1024700000680221884321680860194908312068F2
:10248000884201D1022017E015491C31206888429A
:1024900001D1202010E0124930312068884201D15A
:1024A000401509E00E4944312068884202D10120DC
:1024B000400301E00120400409494860A06BA0638B
:1024C00001212120015500BF00212020015500BF1E
:1024D000A06A002802D02046A16A884710BD0000EB
:1024E0000000024001460022002901D1012070476E
:1024F0002120405C002802D10023202043540223E5
:1025000021204354086802680C4802408B684868E0
:102510001843CB6818430B6918434B6918438B6900
:102520001843CB691843024308680260002088639F
:102530000123212043540020D9E700000FC0FFFFF2
:10254000F8B504460D4616461F4600BF2020005D24
:10255000012801D10220F8BD01212020015500BF32
:1025600002212120015520680068400840002168B0
:1025700008603B46324629462046FFF729FA206884
:10258000006802210843216808602068006804216F
:102590000843216808602068006808210843216812
:1025A0000860206800680121084321680860002055
:1025B000D1E70000F8B504460E460127002500BF0C
:1025C0002448007E012801D10220F8BD01202149C4
:1025D000087600BF2068012811D11F48FFF76CFA68
:1025E000002830D1FFF70AFA1B48FFF765FA0746C3
:1025F0001A480069042188431849086123E01648F5
:10260000FFF75AFA00281ED1401E3060656813E0BB
:102610002846FFF707FA1048FFF74EFA07460F481B
:102620000069022188430D490861002F01D03560FF
:1026300008E0012080022D18A0688002616840181F
:10264000A842E5D800BF00BF00200249087600BFBD
:102650003846BAE7F011002050C3000000200240C5
:102660000348006980210843014908610020704740
:1026700000200240F0B51FB486B0074615461E463E
:102680000120039000240020029000BF2548007E16
:10269000012802D102200BB0F0BD012021490876AB
:1026A00000BF2148FFF708FA03900398002831D1B2
:1026B000012F02D10120029006E0022F02D1022058
:1026C000029001E00420029000241FE0220128462D
:1026D000314604960595FDF72FFD80B2610001900B
:1026E0000798081800900199FFF7B2F90E48FFF714
:1026F000E3F903900D480069400840000B49086168
:102700000398002800D004E0601CC4B20298844200
:10271000DCDB00BF00BF00200249087600BF039841
:10272000B9E70000F011002050C300000020024073
:102730000748006980210840002805D00548044961
:1027400048600548486001E0012070470020FCE730
:102750000020024023016745AB89EFCD70470000A0
:1027600010B50446054840692040002804D00348BD
:1027700044612046FFF7F2FF10BD00000004014055
:1027800078B50346002200240020DEE001269640B2
:102790000D6835402C46002C7ED04D68022D02D0AD
:1027A0004D68122D15D1D508AE001D462035A8590B
:1027B0005507EE0E0F25B5400646AE433046560788
:1027C000F60E0D69B5402843D508AD001E462036EB
:1027D0007051186856000325B5400646AE43304692
:1027E0000D79AD07AD0F5600B540284318604D6810
:1027F000012D08D04D68022D05D04D68112D02D055
:102800004D68122D18D1986856000325B54006462C
:10281000AE4330465600CD68B540284398605868AE
:10282000012595400646AE43304610264D6835409A
:102830002D09954028435860D86856000325B540B7
:102840000646AE43304656008D68B5402843D860F2
:10285000012636074D683540B54275D100BF3E4D63
:10286000AD69012635433C4EB5613546AD69ED078E
:10287000ED0F009500BF00BF384D9608B600A8596F
:1028800095072E0F0F25B5400646AE433046092565
:10289000ED06AB4203D100E056E000250FE0304DDD
:1028A000AB4201D101250AE02E4DAB4201D10225F8
:1028B00005E02D4DAB4201D1032500E0052596072B
:1028C000360FB5402843254D9608B600A851274D30
:1028D00028680546A5432846012636044D6835403C
:1028E000B54202D1054625432846204D2860686838
:1028F0000546A5432846012676044D683540B54275
:1029000002D1054625432846184D6860A86805464B
:10291000A5432846012636054D683540B54202D10B
:10292000054625432846114DA860E8680546A5439D
:102930002846012676054D683540B54202D1054648
:1029400025432846094DE860521C0D68D540002DEE
:1029500000D01BE778BD00000010024008000140D5
:102960000004004800080048000C00480004014032
:10297000024613690B40002B01D0012000E000202B
:102980007047002A01D0816100E081627047000039
:10299000014800687047000070000020024800688D
:1029A000401C0149086070477000002070B5044663
:1029B00000F096F906467D21C900FDF793FB054618
:1029C00000F010FE00222146501E00F00FF80020FB
:1029D00070BD000000BFC206D20E01219140024A24
:1029E000116000BF7047000000E100E070B50446D0
:1029F0000D4616462946204601F094F970BD0000A8
:102A0000F8B50446002600250027012109042068A6
:102A10000840884278D14A48C06909030840002824
:102A20000DD100BF4648C06908434549C861084602
:102A3000C06909040840009000BF00BF0127414859
:102A40000068FF2101310840002816D13D48006888
:102A500008433C490860FFF79BFF064606E0FFF786
:102A600097FF801B642801D90320F8BD3548006812
:102A7000FF21013108400028F1D03148006A0321CC
:102A8000090208400546002D2DD060680840A84284
:102A900029D02B48006A884305462948006A01214D
:102AA00009040843264908620846006A012109040E
:102AB00088432349086208460562E807C00F0028DA
:102AC00011D0FFF765FF064607E0FFF761FF801BA7
:102AD0001D49884201D90320C7E71948006A02212D
:102AE00008400028F1D01648006A032109028843F3
:102AF0006168084312490862012F05D10846C06980
:102B0000090488430E49C8612078C007C00F002817
:102B100007D00B48006B80088000A1680843084973
:102B20000863202120680840202807D10448006B52
:102B300010218843E168084301490863002094E7B5
:102B400000100240007000408813000070B5044679
:102B50000D4600265D480068C007C00FA8420ED28F
:102B60005A48006840084000284358490860084611
:102B70000068C007C00FA84201D0012070BD02212B
:102B800020680840022807D151484068F021884356
:102B9000A16808434E4948602078C007C00F00284C
:102BA0005FD06068012808D14948006801214904C4
:102BB0000840002815D10120E0E76068022808D10C
:102BC00043480068012149060840002809D1012036
:102BD000D4E73F48006802210840002801D10120C5
:102BE000CCE73B484068800880006168084338496A
:102BF0004860FFF7CDFE0646606801280FD107E068
:102C0000FFF7C6FE801B3349884201D90320B5E790
:102C10002F4840680C2108400428F1D121E0606869
:102C200002280FD107E0FFF7B3FE801B2949884235
:102C300001D90320A2E7264840680C210840082853
:102C4000F1D10EE007E0FFF7A3FE801B2149884287
:102C500001D9032092E71E4840680C210840002853
:102C6000F1D11A480068C007C00FA8420ED9174812
:102C7000006840084000284314490860084600687E
:102C8000C007C00FA84201D0012077E704212068C7
:102C90000840042808D10E484068072109028843EB
:102CA000E16808430A49486000F032F80849496879
:102CB000F02211400909084A515CC84007490860E0
:102CC0000320FFF773FE002058E7000000200240B9
:102CD0000010024088130000C25B0008740000204E
:102CE00001480068704700007400002000B5FFF73D
:102CF000F7FF05494968072212021140090A034AF1
:102D0000515CC84000BD000000100240D25B0008CA
:102D1000F0B589B024A001460EC9C06805AC0EC448
:102D2000089025A001460EC9C06801AC0EC40490ED
:102D30000024002700250026002000902248446837
:102D40000C202040002827D0042802D0082822D1B7
:102D500002E01E48009022E00F2080042040800CFA
:102D600005A90E5C1848C06A0007000F01A90F5C96
:102D700001200004204001210904884206D139467F
:102D80001248FDF7AFF97043054602E0104835469A
:102D90004543009503E000BF0E48009000BF00BF10
:102DA000009809B0F0BD00000203040506070809F9
:102DB0000A0B0C0D0E0F1010010203040506070884
:102DC000090A0B0C0D0E0F1000100240001BB7007B
:102DD00000093D0000127A00F8B50446002520786D
:102DE000C007C00F002871D0F94840680C21084086
:102DF00004280BD0F64840680840082812D1F4484F
:102E0000406801210904084088420BD1F04800685D
:102E100001214904084000286BD06068002868D16F
:102E20000120F8BD00BF6068012807D1E8480068AC
:102E3000012109040843E649086031E06068002880
:102E40000ED1E3480068012109048843E049086085
:102E500008460068012189048843DD4908601FE0B5
:102E6000606805280ED1DA4800680121890408430A
:102E7000D749086008460068012109040843D4497D
:102E800008600DE0D2480068012109048843D04958
:102E9000086008460068012189048843CC4908601D
:102EA00000BF6068002812D0FFF772FD054606E0FB
:102EB000FFF76EFD401B642801D90320B1E7C44829
:102EC00000680121490408400028F1D011E0FFF713
:102ED0005FFD054606E0FFF75BFD401B642801D956
:102EE00003209EE7BA4800680121490408400028F1
:102EF000F1D1022120680840022861D1B44840681D
:102F00000C21084000280BD0B14840680840082830
:102F10001BD1AF484068012109040840002814D1A2
:102F2000AB48006802210840002804D0E06801286E
:102F300001D0012075E7A6480068F821884321697F
:102F4000C9000843A24908603AE0E068002820D0A0
:102F50009F480068012108439D490860FFF718FD5C
:102F6000054606E0FFF714FD401B022801D90320A7
:102F700057E797480068022108400028F2D094489B
:102F80000068F82188432169C90008439049086016
:102F900016E08F480068400840008D490860FFF740
:102FA000F7FC054606E0FFF7F3FC401B022801D9B9
:102FB000032036E786480068022108400028F2D145
:102FC000082120680840082831D1E069002817D07E
:102FD0007F48406A012108437D494862FFF7D8FCD9
:102FE000054606E0FFF7D4FC401B022801D9032068
:102FF00017E77748406A022108400028F2D016E01F
:103000007348406A4008400071494862FFF7C0FCBD
:10301000054606E0FFF7BCFC401B022801D903204F
:10302000FFE66B48406A022108400028F2D10421E3
:1030300020680840042871D100266548C0698906C7
:10304000084000280DD100BF6148C06908436049AD
:10305000C8610846C06909040840009000BF00BF6D
:1030600001265C480068FF2101310840002816D184
:1030700058480068084357490860FFF789FC05462F
:1030800006E0FFF785FC401B642801D90320C8E651
:1030900050480068FF21013108400028F1D000BFEE
:1030A000A068012806D14A48006A0121084348491E
:1030B00008622BE0A06800280CD14548006A40084F
:1030C0004000434908620846006A04218843404999
:1030D00008621BE0A06805280CD13D48006A042165
:1030E00008433B4908620846006A01210843384901
:1030F00008620BE03648006A400840003449086224
:103100000846006A042188433149086200BFA0686C
:10311000002813D0FFF73CFC054608E029E0FFF744
:1031200037FC401B2C49884201D9032079E6284806
:10313000006A022108400028F1D011E0FFF728FCC6
:10314000054607E0FFF724FC401B2349884201D9CC
:10315000032066E61E48006A022108400028F1D1DB
:10316000012E05D11A48C069310788431849C86142
:1031700000BF10212068084010285FD16069012835
:103180002CD11348406B0421084311494863084679
:10319000406B012108430E494863FFF7F9FB0546E0
:1031A00006E0FFF7F5FB401B022801D9032038E6B3
:1031B0000748406B022108400028F2D00448406BC9
:1031C000F8218843A169C90008430149486335E0F3
:1031D0000010024000700040881300006069401D2C
:1031E00000280FD14E48406B042188434C49486366
:1031F0000846406BF8218843A169C9000843484943
:1032000048631BE04648406B042108434449486337
:103210000846406B400840004863FFF7B9FB05468D
:1032200006E0FFF7B5FB401B022801D90320F8E5B3
:103230003B48406B022108400028F2D1206A002858
:103240006CD0374840680C210840082864D0206AB8
:10325000022847D1324800680121090688433049D5
:103260000860FFF795FB054606E0FFF791FB401B62
:10327000022801D90320D4E5294800680121490624
:1032800008400028F1D100BF2548C06A00090001AC
:10329000E16A08432249C862616AA06A084320497A
:1032A00049683D221204914308431D49486000BF0C
:1032B0000846006801210906084319490860FFF71C
:1032C00067FB054606E0FFF763FB401B022801D9B8
:1032D0000320A6E51248006801214906084000289D
:1032E000F1D01BE00E4800680121090688430C4913
:1032F0000860FFF74DFB054606E0FFF749FB401B62
:10330000022801D903208CE50548006801214906FF
:1033100008400028F1D101E0012082E5002080E58D
:103320000010024070B50446002C01D1012070BD90
:103330005D20005D002805D100215C20015520465C
:1033400000F068F802215D200155206800684021E6
:1033500088432168086007210902E068884201D992
:10336000002501E001252D030F210902E0688842B4
:1033700006D007210902E068884201D00021A1623D
:10338000206B002809D107210902E068884202D990
:103390000221216301E001212163A16860680843E3
:1033A000216908436169084301225202A169114061
:1033B0000843E1690843216A0843A16A0843216878
:1033C0000860206B022805D120680068910008433E
:1033D00021680860A069000C04210840616A084364
:1033E000616B0843E168084328432168486021680D
:1033F000E06A08612068C069054908402168C86121
:103400000020206601215D20015500208FE700008B
:10341000FFF7000070470000FEB504460F46164651
:103420001D46FFF7B5FA02900020019000BF5C2016
:10343000005D012801D10220FEBD01215C20015563
:1034400000BF5D20005D012802D002200190BCE099
:10345000002F01D0002E02D101200190B5E0032100
:103460005D20015500202066A763A687E6872064BB
:10347000002144200153462001530121C903A068C3
:10348000884205D120680068491008432168086017
:1034900001214903A06A88420ED100BF206800685C
:1034A0004F490840216808602068006801214903ED
:1034B00008432168086000BF206800684021084078
:1034C000402804D02068006808432168086007216C
:1034D0000902E068884223D91EE020688068022142
:1034E000084002280AD1A06B00882168C860A06B40
:1034F000801CA063E08F401EE0870DE0002D08D007
:10350000681C002808D0FFF743FA0299401AA84225
:1035100002D30320019058E0E08F0028DDDC2FE08B
:103520002BE02068806802210840022817D1E08F34
:1035300001280ADDA06B00882168C860A06B801C90
:10354000A063E08F801EE08717E0A16B481CA0639A
:10355000087821680873E08F401EE0870DE0002D99
:1035600008D0681C002808D0FFF712FA0299401A08
:10357000A84202D30320019027E0E08F0028D0DC8E
:1035800001214903A06A884205D1206800684910DA
:103590000843216808602946204600F019FE0028EB
:1035A00001D020202066A068002808D100BF206834
:1035B000C068009020688068009000BF00BF206E47
:1035C000002801D00120019000BF01215D2001559C
:1035D00000BF00215C20015500BF01982CE70000CE
:1035E000FFDF000070B504462546681E0949884281
:1035F00001D901200CE0681E074948610321081F1A
:1036000000F090FB00200449886107200861002039
:1036100070BD0000FFFFFF0000E000E07047704752
:1036200010B50446002C01D1012010BD3920005DE9
:10363000002805D1002138200155204600F00CF863
:10364000022139200155211D206800F02DFF0121A4
:10365000392001550020E8E7704701460868C06836
:10366000012210430A68D0600868006801221043F4
:103670000A68106000207047704710B50446206843
:10368000006902210840400800281CD02068C0685A
:1036900008404008002816D0481F21680861012012
:1036A0002076206880698007800F002803D020469C
:1036B000FFF7E2FF05E0204600F0C3F8204600F0E7
:1036C000C1F80020207620680069042108408008A5
:1036D00000281DD02068C06808408008002817D046
:1036E000C843216808610220207620688069032190
:1036F00009020840002803D02046FFF7BDFF05E07F
:10370000204600F09EF8204600F09CF8002020762D
:103710002068006908210840C00800281CD02068E3
:10372000C0680840C008002816D0C8432168086156
:10373000042020762068C0698007800F002803D00D
:103740002046FFF799FF05E0204600F07AF8204672
:1037500000F078F8002020762068006910210840E9
:10376000000900281DD02068C06808400009002812
:1037700017D0C84321680861082020762068C069F6
:10378000032109020840002803D02046FFF774FFF8
:1037900005E0204600F055F8204600F053F80020E0
:1037A000207620680069C007C00F012148404840CA
:1037B00000280CD02068C0680840484048400028D5
:1037C00005D0C81E21680861204600F03DF8206839
:1037D000006980210840C00900280BD02068C0681B
:1037E0000840C009002805D0C84321680861204668
:1037F000FFF714FF20680069402108408009002875
:103800000BD02068C06808408009002805D0C84354
:1038100021680861204600F031F820680069202105
:103820000840400900280BD02068C06808404009C3
:10383000002805D0C843216808612046FFF7EFFE45
:1038400010BD7047704700000849884203D101212C
:10385000074A116070470749884205D1064909683F
:10386000491C054A1160F5E700BFF3E77C0C002016
:103870002C000020F40C002040000020704770470E
:1038800010B504462068C069C007C00F00280DD0DD
:1038900020680068FF2101310840002806D001207F
:1038A00021680862E06E01210843E0662068C06973
:1038B0000221084000280CD020688068C007C00F93
:1038C000002806D0022021680862E06E0421084327
:1038D000E0662068C0690421084000280CD02068F8
:1038E0008068C007C00F002806D004202168086245
:1038F000E06E02210843E0662068C06908210840A4
:1039000000280CD020688068C007C00F002806D0AF
:10391000082021680862E06E08210843E0662068FC
:10392000C06920210840002807D0206800680840AE
:10393000002802D0204600F055FF2068C069802191
:103940000840002807D0206800680840002802D0FE
:10395000204601F087F82068C0694021084000280F
:1039600007D0206800680840002802D0204600F0F8
:1039700029FFE06E002807D02021692001556A2028
:1039800001552046FFF77BFF10BD10B50446002C03
:1039900001D1012010BDA069002800D000E000BFC7
:1039A0006920005D002805D10021682001552046CE
:1039B00000F02CF824216920015520680068400897
:1039C000400021680860204600F05AFF012800D11D
:1039D000E0E7606A002802D0204600F0E7FD20689A
:1039E00040680121C90288432168486020688068D6
:1039F0000821884321688860206800680121084305
:103A000021680860204600F049FEC3E770470000C7
:103A1000F7B5044615466A20005D202848D1019874
:103A2000002801D0002D01D10120FEBD0121090394
:103A3000A068884209D12069002806D10198C007F2
:103A4000C00F002801D00120EFE700BF6820005D13
:103A5000012801D10220E8E701216820015500BFBB
:103A600001986065582005530020E06622216A20F5
:103A700001551048616E88620F48616EC8620F4838
:103A8000616E086301AE32682368194624312B4603
:103A9000606EFEF755FD206880684021084321686C
:103AA000886000BF00216820015500BF0020BCE7EE
:103AB0000220BAE7E546000817470008BB460008A1
:103AC00010B503466A20C05C202860D1002901D0CF
:103AD000002A01D1012010BD012424039868A042CE
:103AE00008D11869002805D1C807C00F002801D0E7
:103AF0000120F0E700BF6820C05C012801D102204E
:103B0000E9E701246820C45400BF59655820C25217
:103B10005A20C25200BF24039868A0420AD11869F3
:103B2000002803D11B4C5C20C45210E0FF245C2011
:103B3000C4520CE09868002809D11869002803D104
:103B4000FF245C20C45202E07F245C20C45200BFEA
:103B50000020D86622246A20C45418680068FF2414
:103B6000013420431C6820601868806801242043C9
:103B70001C68A06000BF00246820C45400BF1868FF
:103B80000068202420431C6820600020A3E7022056
:103B9000A1E70000FF01000010B504461C48844264
:103BA00010D10068808C1B491B4A128888541A481F
:103BB0000088401C1849088008460088632801DDF9
:103BC000002008801548844216D10068808C144972
:103BD000144A1288885401F0EDFB1348007800283D
:103BE0000AD110480088401C0E4908800846008809
:103BF000632801DD0020088001220C490748FFF7F7
:103C00005FFF012209490248FFF702FF10BD0000D3
:103C1000040E00209E0D00205A000020740E00208B
:103C2000300D00205600002054000020940D00208C
:103C3000704710B503466920C05C202835D10029A3
:103C400001D0002A01D1012010BD0124240398686D
:103C5000A04208D11869002805D1C807C00F002864
:103C600001D00120F0E700BF6820C05C012801D12D
:103C70000220E9E701246820C45400BFD964502021
:103C8000C2525220C2520020D86621246920C45456
:103C900000BF00246820C45400BF18680068802456
:103CA00020431C6820600020CEE70220CCE770474C
:103CB00000BFFEE700B587B000BF0F484069012193
:103CC000490408430C4948610846406901214904F8
:103CD0000840019000BF00BF072080020290002032
:103CE0000390012004900020059002A90348FEF7EC
:103CF00047FD07B000BD000000100240000400486E
:103D000010B502A000F0ECFF10BD00002A343038DE
:103D10003538392330303031236170702A0D0A0074
:103D20007047000010B5002819DA1A4A03071B0F64
:103D3000083B9B089B00D2588307DC0EFF23A3405F
:103D40009A438B071B0E8407E40EA3401A43114BC2
:103D50000407240F083CA408A4001A5118E00E4AD6
:103D600003231B02D21883089B00D2588307DC0E62
:103D7000FF23A3409A438B071B0E8407E40EA34046
:103D80001A43054B032424021B198408A4001A516A
:103D900010BD00001CED00E000E100E070B5002463
:103DA00015E02146B031C8B200F08EF9012000F0D4
:103DB0008BF9102000F088F9002504E0002000F0C5
:103DC00097F9681CC5B2802DF8DB601CC4B2082CC2
:103DD000E7DB70BD00B587B000BF454840690121F1
:103DE0008904084342494861084640690121890421
:103DF0000840019000BF00BF6020029001200390A6
:103E000004900320059002A93A48FEF7B9FC00226D
:103E100040213848FEF7B5FD322001F075F8012247
:103E200040213448FEF7ADFDAE2000F04DF90020F2
:103E300000F04AF9102000F047F9402000F044F962
:103E4000812000F041F9CF2000F03EF9A12000F0E0
:103E50003BF9C82000F038F9A62000F035F9A82079
:103E600000F032F93F2000F02FF9D32000F02CF9B8
:103E7000002000F029F9D52000F026F9802000F07C
:103E800023F9D92000F020F9F12000F01DF9DA2003
:103E900000F01AF9122000F017F9DB2000F014F9F5
:103EA000402000F011F9202000F00EF9022000F06F
:103EB0000BF98D2000F008F9142000F005F9A4207A
:103EC00000F002F9A62000F0FFF8AF2000F0FCF8A7
:103ED000FF2000F019F80021084600F0DDF8FFF798
:103EE0005DFF05A20021102000F090F807B000BD92
:103EF00000100240000400484F4C454420446973C0
:103F0000706C61790000000070B50646002415E071
:103F10002146B031C8B200F0D7F8012000F0D4F843
:103F2000102000F0D1F8002504E0304600F0E0F861
:103F3000681CC5B2802DF8DB601CC4B2082CE7DB1E
:103F400070BD0000F7B50E46174600247D013146CE
:103F5000009800F0A1F800BF06E00D49485D00F0B0
:103F6000C7F86D1C601CC4B2102CF6DB701CC1B20B
:103F7000009800F091F8002406E00549485D00F043
:103F8000B7F86D1C601CC4B2102CF6DBFEBD00003F
:103F9000A3000020FEB505460E46174600200190FE
:103FA000002400900098385C2038C0B20190782D31
:103FB00002DD0025701CC6B2691EC8B2314600F091
:103FC0006BF8002408E00199090109190E4A505CB8
:103FD00000F08EF8601CC4B2082CF4DB721CD1B265
:103FE0006A1ED0B200F058F8002409E001990901D6
:103FF00009190831044A505C00F07AF8601CC4B218
:10400000082CF3DBFEBD000003060020FEB50546CC
:104010000E461746002001900024009034E00098DE
:10402000385C2038C0B20190782D02DD0025701C6C
:10403000C6B23146284600F02FF8002408E0019966
:1040400009010919134A505C00F052F8601CC4B20F
:10405000082CF4DB701CC1B2284600F01DF80024C7
:1040600009E001990901091908310A4A505C00F078
:104070003FF8601CC4B2082CF3DB28460830C5B2F8
:104080000098401CC0B200900098385C0028C6D14F
:10409000FEBD00000306002070B504460D4629460B
:1040A000B031C8B200F010F8F021214009110846E3
:1040B000103000F009F82107090F012211430846CA
:1040C00000F002F870BD000001B500222021054873
:1040D000FEF757FC044B012269460448FFF79CF9A0
:1040E00008BD00000004004888130000C00F002035
:1040F00001B5012220210548FEF743FC044B0122B3
:1041000069460448FFF788F908BD0000000400482C
:1041100088130000C00F00207047000000B587B072
:1041200000BF2748C0690121890308432449C861A9
:104130000846C069012189030840019000BF00BF03
:1041400000BF1F484069090108431D4948610846EE
:104150004069012189040840019000BF00BF072089
:104160004003029002200390012004900320059058
:104170000020069002A91348FEF702FB12481349DB
:10418000086038211148C1610021816041610161ED
:1041900081620721C1620902C1600021016201211F
:1041A0004902816100214162416301210163FF20D5
:1041B0000530064948600846FFF7B4F807B000BD6F
:1041C000001002400004004800380040C00F0020EA
:1041D00070B504460D462B4600220321C902204635
:1041E00000F018F8002805D0206E20210843206632
:1041F000032070BD2B4600228021204600F06AF883
:10420000002805D0206E2021084320660320F0E717
:104210000020EEE7FEB504460E4617461D46FEF7A3
:10422000B7FB00904DE003204002864206D1002FEC
:1042300004D12068017B019168460079681C002840
:104240003FD0002D05D0FEF7A3FB0099401AA842ED
:1042500037D320684068E021884321684860FF2107
:104260000531606888420ED10121C903A0688842E7
:1042700003D04911A068884205D120680068402118
:1042800088432168086001214903A06A88420ED151
:1042900000BF206800680E49084021680860206857
:1042A00000680121490308432168086000BF01211B
:1042B0005D20015500BF00215C20015500BF032097
:1042C000FEBD206880683040B842ACD10020F7E7DE
:1042D000FFDF0000F8B504460E4617461D46FEF700
:1042E00057FB009042E0681C00283FD0002D05D00D
:1042F000FEF74EFB0099401AA84237D32068406869
:10430000E021884321684860FF21053160688842C8
:104310000ED10121C903A068884203D04911A068C9
:10432000884205D1206800684021884321680860E0
:1043300001214903A06A88420ED100BF20680068AD
:104340000E4908402168086020680068012149037F
:1043500008432168086000BF01215D20015500BFAE
:1043600000215C20015500BF0320F8BD2068806853
:104370003040B842B7D10020F7E70000FFDF00006F
:10438000704710B5FEF70AFB00F002F810BD000000
:1043900004480068002804D002480068401E014913
:1043A000086070473400002000B591B001200590EE
:1043B000069002200D90C1030E91002110918104FE
:1043C0000F9105A8FEF708FD002802D0002011B0CB
:1043D00000BD07200190022002900020039004906D
:1043E000012101A8FEF7B2FB002801D00020EEE772
:1043F0000348006901210843014908610120E6E7FB
:1044000000E000E0194800680121084317490860EE
:104410000846406816490840144948600846006844
:1044200014490840114908600846006801218904C0
:1044300088430E490860084640683F2109048843C4
:104440000A4948600846C06A00090001C862084677
:10445000006BFF2114318843044908630846406B10
:104460004008400048630020886070470010024008
:104470000CB8FF08FFFFF6FE10B50248FFF7FDF885
:1044800010BD0000B80C002010B50248FFF7F5F889
:1044900010BD0000F40C002010B50248FFF7EDF845
:1044A00010BD00007C0C002010B5002202681D4BDE
:1044B000984202D01C4B984205D170241346A34366
:1044C0001A464B681A43174B98420ED0164B984227
:1044D0000BD0164B984208D0154B984205D0154B7F
:1044E000984202D0144B984206D10324240213466A
:1044F000A3431A46CB681A4302608B68C3620B68F9
:104500008362084B984208D0094B984205D0094B6A
:10451000984202D0084B984201D10B6903630123F2
:10452000436110BD002C0140000400400020004009
:1045300000400140004401400048014008B500BF70
:104540001448C069022108431249C8610846C0697D
:1045500002210840009000BF00BF0F480F490860CB
:104560000F490E48C16000200C49486000210B48EB
:10457000016181604161FFF753F80848FFF76DF86A
:10458000002203211020FEF731FA1020FEF722FA54
:1045900008BD000000100240000400407C0C002018
:1045A0007FBB000010B5FFF7C9FF10BD818CC907A4
:1045B000C90F002908D001684968012252049143BB
:1045C000826A1143026851600222416A1140002947
:1045D00007D001684968D2039143C26A1143026857
:1045E00051600422416A1140002907D001684968DE
:1045F00012049143026B1143026851600822416A20
:104600001140002907D00168496812039143426BA9
:104610001143026851601022416A1140002907D0FD
:104620000168896812029143826B114302689160AC
:104630002022416A1140002907D0016889681202CE
:104640009143C26B1143026891604022416A11405C
:10465000002915D00168496892039143026C114307
:104660000268516001221205016C914208D1016873
:104670004968032252059143426C1143026851601C
:104680008022416A1140002907D00168496812035D
:104690009143826C114302685160704701460020CB
:1046A000C8662022692042546A20425400BF00227A
:1046B0006820425400BF0020704770B505466C6A00
:1046C00000215A2001535220015320216920015515
:1046D0006A200155E06E10210843E0662046FFF78E
:1046E000CEF870BD70B505466C6A28680068202158
:1046F000084000280BD100215A200153206880680F
:10470000402188432168886020216A200155204685
:10471000FFF742FA70BD70B50446656A2846FFF798
:1047200087FA70BD38B5044600BF224840690121B0
:1047300008432049486108464069C007C00F0090FF
:1047400000BF00BF1C481D490860102048600021C0
:104750001A4881608021C16000210161416181614D
:10476000C161FDF7BFFE00BF14482066446200BF70
:104770001148143012490860002048600021104898
:1047800081608021C160002101614161816101215D
:104790004903C161FDF7A6FE00BF09486066446297
:1047A00000BF012200210A20FEF720F90A20FEF7AF
:1047B00011F938BD001002401C000240E40E002038
:1047C000200F002010B5044620680068402188436F
:1047D000216808602021692001552046FFF767FA0B
:1047E000002010BD70B504465C20065B6A20005DA9
:1047F00022283DD101210903A06888420BD12069FC
:10480000002808D1656D2068808C30402880606D5C
:10481000801C606507E02068808CF1B20840626D02
:10482000511C616510705A20005B401E81B25A20F5
:10483000015300291AD1206800682021884321688B
:10484000086020680068FF21013188432168086002
:1048500020688068400840002168886020216A2024
:1048600001552046FFF798F9002070BD0020FCE7B5
:104870002068806908210843216888610220F4E7E4
:10488000FEB5044600251026002700200290019066
:104890002169A068084361690843E1690843054646
:1048A000206800686849084028432168086020683B
:1048B0004068032109038843E16808432168486090
:1048C000216AA06908430546206880680B21090217
:1048D000884328432168886000BF5C49206888427B
:1048E00017D15B48006B8007800F002806D0012895
:1048F00008D0022808D0032808D101E0002607E0EC
:10490000022605E0042603E0082601E0102600BF89
:1049100006E050492068884201D1002600E01026B8
:1049200000BF0121C903E069884249D1042E20D08B
:1049300004DC002E07D0022E32D111E0082E25D043
:10494000102E2DD12DE0FEF7D1F940006168490805
:10495000401800906168FBF7C5FB80B2029023E02D
:1049600061684A083C4BD018FBF7BCFB80B2029050
:104970001AE0FEF7CDF94000616849084018009040
:104980006168FBF7AFFB80B202900DE061684A08F6
:1049900001231B04D018FBF7A5FB80B2029003E0B3
:1049A00000BF0120019000BF00BF2C4902980840C1
:1049B000074602980007400F07432068C76040E0A1
:1049C000042E21D004DC002E07D0022E34D111E0B9
:1049D000082E26D0102E2FD12FE0FEF787F9616820
:1049E0004908401800906168FBF77CFB80B22168A1
:1049F000C86025E061684A08194BD018FBF772FBC4
:104A000080B22168C8601BE0FEF782F9616849083E
:104A1000401800906168FBF765FB80B22168C860B0
:104A20000EE061684A080123DB03D018FBF75AFB4C
:104A300080B22168C86003E000BF0120019000BF80
:104A400000BF0198FEBD0000F369FFFF0038014080
:104A500000100240004400400024F400F0FF000079
:104A600000127A0001466920405C212831D1522091
:104A7000405A00280DD108680068802398430B68CD
:104A8000186008680068402318430B68186000200D
:104A9000704701231B03886898420CD108690028DD
:104AA00009D1CA6C1088C005C00D0B681885C86C88
:104AB000801CC86405E0CB6C581CC86418780B686F
:104AC00018855220405A401E83B252204352002083
:104AD000DEE70220DCE7000010B50248FEF7D0FE5A
:104AE00010BD0000040E002010B50248FEF7C8FEFD
:104AF00010BD0000740E002000B58BB000BF31481F
:104B000080690121890308432E498861084680692C
:104B1000012189030840019000BF00BF00BF294860
:104B20004069C90008432749486108464069012196
:104B300049040840019000BF00BF032040020690D6
:104B400002200790012008900320099001200A907C
:104B500006A90920C006FDF713FE012002900020DF
:104B6000049002A8FDF74CFF1748184908604B2035
:104B7000C0014860002115488160C16001610C21BD
:104B8000416100218161C161016200200F494862D9
:104B90000846FEF7FAFE0D48FFF7C4FD01220C4956
:104BA0000A48FEF735FF012200211B20FDF71EFFFA
:104BB0001B20FDF70FFF07A1012000F0EBFF0BB05A
:104BC00000BD00000010024000380140040E00202B
:104BD000940D002055534152543120436F6E666945
:104BE00067206973206F6B0D0A00000000B587B065
:104BF00000BF2E48C0690121490408432B49C86100
:104C00000846C069012149040840019000BF00BF67
:104C100000BF264840690843244948610846406966
:104C2000012149040840019000BF00BF0320800318
:104C3000029002200390012004900320059001209F
:104C4000069002A90920C006FDF79AFD18481949E7
:104C50000860E12040024860002116488160C16080
:104C600001610C21416100218161C161016200206B
:104C7000104948620846FEF788FE01220E490D4899
:104C8000FEF71EFF01220C490A48FEF7D2FF02225E
:104C900000211C20FDF7AAFE1C20FDF79BFE07A1AA
:104CA000022000F077FF07B000BD000000100240B6
:104CB00000440040740E0020940D002055534152D2
:104CC000543220436F6E666967206973206F6B0DE5
:104CD0000A00000010B5FFF70FFFFFF787FF10BDB8
:104CE0000FB410B503A9044B044A029800F026F84B
:104CF00010BC08BC04B01847D1550008780C00203F
:104D000030B47446641E2578641CAB4204D3635DE2
:104D10005B00E31830BC18471D46F8E702E008C8FE
:104D2000121F08C1002AFAD170477047002001E025
:104D300001C1121F002AFBD170470000FFB58DB0E2
:104D40000F460546002606E025280AD0109A0F993E
:104D500090476D1C761C28780028F5D1304611B09C
:104D6000F0BD00240121674A009400E004436D1C5B
:104D70002B780846203B98401042F7D128782E28FF
:104D800015D10420044368786D1C2A280AD101CF6C
:104D90006D1C00900BE000990A22514330394018F5
:104DA0006D1C00902878014630390929F3D92878FC
:104DB000692843D006DC0028D0D063280BD06428B3
:104DC00004D13BE073280FD075284CD0109A0F996E
:104DD0009047761C94E03878694608720020487243
:104DE00002A80190012003E0386801900020C04330
:104DF0003F1D61070CD5002400E0641C00998C4223
:104E00000FDA8442F9DB0199095D0029F5D108E048
:104E1000002400E0641C8442FCDB0199095D002948
:104E2000F8D1361907E0019801990078491C0191E1
:104E3000109A0F999047641EF5D261E00A20019004
:104E400001CF002802DA40422D2102E0210504D5DD
:104E50002B216A461172012103E0E10701D02021D4
:104E6000F7E70C9104E00A20019001CF00210C919A
:104E70000BA90B9108E00199FBF734F90A460B994D
:104E80003032491E0B910A700028F4D10B9803A907
:104E9000081A20300190600701D5009801E0012038
:104EA00000900199884203DD01460198081A00E04C
:104EB00000200024009006E002A8109A005D0F99DF
:104EC0009047641C761C0C988442F5DB04E0109A31
:104ED00030200F999047761C0099481E00900029B9
:104EE000F5DC08E00B980B990078491C0B91109A9F
:104EF0000F999047761C0199481E01900029F1DC1A
:104F00006D1C28E70928010006490860064909695F
:104F100001221143044A116100BF024909680029B6
:104F2000FBD170473400002000E000E00146002083
:104F30000BE00C2205E000BF00BF00BF00BF431C18
:104F400098B28842F7DB431C98B28842F1DB704785
:104F500010B500240CE01AA0FFF7C2FE6420FFF792
:104F6000D3FF18480078002800D003E0601CC4B2CA
:104F7000142CF0DB00BF50211348FCF7E7FD134869
:104F80000078FF281BD0002417E01048005D10496E
:104F90000855204614300D49085C0E490855204636
:104FA00028300A49085C0C49085520463C3007491E
:104FB000085C0A490855601CC4B2142CE5DB10BD1E
:104FC0002B2B2B00F90B002000FC000860100020A8
:104FD000FA0B00200F0C0020240C0020390C0020BC
:104FE00010B5AE4800780300FFF78AFE0705336C62
:104FF000ACE3F8F7F600AA480068002814D10120B5
:10500000A74908600020A74908806421A64800F04D
:10501000CEFD0020A5490870A5A0FFF761FEA8A15C
:10502000012000F0B7FD13E09D480068C8280FD9A3
:105030009E480078012808D100209C4908709849B2
:10504000086001209549087002E00020944908603A
:1050500021E193480068002812D1944908709149D1
:1050600008806421904800F0A2FD01208C4908606E
:1050700098A0FFF735FE9AA1012000F08BFD20E0FB
:10508000874800689A4988421BD9884800780128D7
:105090000FD1002085490870824908806421824828
:1050A00000F085FD00207E49086002207B490870E1
:1050B00007E07B4800688E49884202D90020784981
:1050C0000860E8E076480068002814D17749087045
:1050D000744908806421744800F069FD012070491A
:1050E0000860844A844985A0FFF7FAFD89A1012060
:1050F00000F050FD25E06A4800688949884220D9BF
:105100006A480078012813D1002068490870654971
:1051100008806421644800F04AFD0020604908606E
:10512000FF20F5307F49086003205C49087008E0E3
:105130005B4800687D214901884202D90020584916
:105140000860A8E056480068002814D15749087044
:10515000544908806421544800F029FD0120504939
:10516000086071A272A176A0FFF7BAFD7BA10120B1
:1051700000F010FD1CE04A4800687D2109018842CA
:1051800016D94A48007801280FD1002047490870F5
:10519000444908806421444800F009FD002040494A
:1051A000086004203D49087002E000203C49086086
:1051B00071E03B480068002816D13C490870394925
:1051C00008806421384800F0F2FC0120344908606E
:1051D00067A0FFF785FD02E05CE058E020E068A1F1
:1051E000012000F0D7FC1AE02D480068C82816D925
:1051F0002E48007801280FD100202C490870294939
:1052000008806421284800F0D2FC0020244908606E
:1052100005202249087002E00020214908603AE098
:105220001F480068002816D1204908701D490880D1
:1052300064211D4800F0BBFC0120194908607D2055
:1052400000013849086053A0FFF74AFD55A101202D
:1052500000F0A0FC1AE012480068C82816D91348CC
:10526000007801280FD100200E49088064210E48E3
:1052700000F09DFC00200A490860062007490870DC
:10528000FEF73EFD02E000200549086003E0FCF760
:10529000CBF900E000BF00BF10BD0000F80B0020FC
:1052A000F40B002056000020300D0020F90B0020E8
:1052B00041542B43574D4F44453D310D0A000000EA
:1052C0002D2D2D41542B43574D4F44453D310D0A53
:1052D0000000000041542B5253540D0A00000000FE
:1052E0002D2D2D41542B5253540D0A0D0A00000050
:1052F000B80B00000F0C0020FA0B002041542B4388
:10530000574A41503D222573222C222573220D0A33
:10531000000000002D2D2D41542B43574A415000D1
:1053200088130000480000203138313100000000AF
:105330003138332E3233302E34302E3430000000EA
:1053400041542B43495053544152543D22544350ED
:10535000222C222573222C25730D0A002D2D2D4180
:10536000542B43495053544152540D0A000000003D
:1053700041542B4349504D4F44453D310D0A0000E7
:105380002D2D2D41542B4349504D4F44453D310D5A
:105390000A00000041542B43495053454E440D0A26
:1053A000000000002D2D2D41542B43495053454EF4
:1053B000440D0A007E48008800280FDD7D487C49A6
:1053C0000988405C4B2809D179480088401E7949FA
:1053D000085C4F2802D10120774908707448008882
:1053E000032821DD734872490988405C79281BD164
:1053F0006F480088401E6F49085C642814D16C48CF
:105400000088801E085C61280ED169480088C01E93
:10541000085C652808D166480088001F085C72286F
:1054200002D1012064490870614800880D285DDDC3
:1054300060485F490988405C442857D15C4800882F
:10544000401E5C49085C452850D159480088801EA0
:10545000085C54284AD156480088C01E085C43287E
:1054600044D153480088001F085C45283ED150486D
:105470000088401F085C4E2838D14D480088801FA6
:10548000085C4E2832D14A480088C01F085C4F286B
:105490002CD1474800880838085C432826D1444866
:1054A00000880938085C202820D1414800880A3843
:1054B000085C59281AD13E4800880B38085C4428FB
:1054C00014D13B4800880C38085C41280ED138487C
:1054D00000880D38085C452808D1354800880E380A
:1054E000085C522802D101203349087030480088F6
:1054F000012815DD2F482E490988405C2B280FD143
:105500002B480088401E2B49085C2B2808D12848CE
:105510000088801E085C2B2802D1012026490870D3
:10552000244823490988405C3E2802D101202249B1
:1055300008701F480088002817DD1E481C4909888C
:10554000405C0A2811D11A480088401E1949085C9D
:105550000D280AD119480078002806D101201749E2
:105560000870134800781649087011480088002810
:105570001DDD10480E490988405C2E2817D10C48C3
:105580000088401E0B49085C2E2810D1084800886E
:10559000801E085C30380B49087005480088001FE1
:1055A0000449085C084908700120084908707047E0
:1055B00056000020300D0020F90B00204F0C002079
:1055C0004E0C0020590C0020580C00205A0C0020D2
:1055D00000BF064A1268D26940231A409209002A85
:1055E000F7D0C2B2014B1B681A857047740E0020B9
:1055F0002048006800283BD01F480068401C1E4916
:1056000008601E480078401C1C4908701C4800684F
:10561000401C1B4908601B480068401C1949086071
:1056200019480068401C1849086018480068401C68
:105630001649086016480068002804D0144800681D
:10564000401C1349086013480088002804D0114802
:105650000088401C0F4908800F480068002804D0CB
:105660000D480068401E0C49086000200149086090
:10567000704700002C000020540C00203000002057
:105680001C000020380000204400002014000020EE
:10569000F40B00205C0000201800002010B5012150
:1056A000C9022C48FDF764F90446002C03D10120FF
:1056B0002949087016E0012189022648FDF758F9AA
:1056C0000446002C03D10220234908700AE001217E
:1056D00009032048FDF74CF90446002C02D10420B0
:1056E0001D4908701D480078002804D001280AD000
:1056F00002282BD11DE0002C04D10120184908807C
:105700001649087023E016480088142810DD002C84
:1057100009D10120134908700220104908700120A6
:105720000F49088004E000200D4908800B490870EB
:105730000DE0002C09D000200949088007490870B5
:10574000084908700448007810BD00E000BF00BFA1
:105750000020F9E700040048610000205E000020FE
:105760005C0000205F00002000F002F800F01EF84E
:1057700010B5FEF719FEFFF7ADFAFEF713FFFCF7C1
:105780001DFAFEF797FAFFF7E3FBFEF7C7FCFEF7FB
:1057900021FBFBF771F8FAF71FFD02480249086088
:1057A00010BD0000881300001800002000BFFFF7A4
:1057B0001FFF11480078012806D0022809D00328CD
:1057C0000AD0042813D10AE0FBF7C4F9FAF7A4FEC3
:1057D00011E0FFF705FC0EE000F010F80BE0FBF71E
:1057E000FBFEFBF7CBF900200349087003E0002023
:1057F0000149087000BFDAE73000002070B50026CC
:10580000BA48007800287DD0B948007806287ADDAB
:10581000032405E0B6480078A04201DD601CC4B254
:10582000B3480078001BB349085C3D2803D0B0485A
:105830000078A042EED1A01EC5B2142D00DD1425C3
:10584000AB480178681D8142E1DDA9480078401B22
:10585000801FA849085C732835D1A5480078401BF3
:10586000401F085C73282ED1A1480078401B001F00
:10587000085C692827D19E480078401BC01E085C40
:10588000642820D100240AE099480078401B401E7B
:1058900000199849085C98490855601CC4B2AC428C
:1058A000F2DB002094494855681CC4B204E0FF2094
:1058B00091490855601CC4B2142CF8DB01268E49AE
:1058C0008EA0FFF70DFA8A480078401B801F894997
:1058D000085C772837D186480078401B401F085C59
:1058E0006F2830D182480078401B001F085C722866
:1058F00029D17F480078401BC01E085C642822D153
:1059000000240CE0F0E0EAE079480078401B401EFB
:1059100000197849085C7C490855601CC4B2AC4247
:10592000F2DB002078494855681CC4B204E0FF202F
:1059300075490855601CC4B2142CF8DB0126724965
:1059400072A0FFF7CDF96A480078401B801F6949B3
:10595000085C742835D166480078401B401F085CFD
:1059600063282ED162480078401B001F085C702815
:1059700027D15F480078401BC01E085C732820D1E7
:1059800000240AE05A480078401B401E001959497B
:10599000085C61490855601CC4B2AC42F2DB0020CF
:1059A0005D494855681CC4B204E0FF205A490855B7
:1059B000601CC4B2142CF8DB0126574957A0FFF72E
:1059C0008FF94B480078401B801F4A49085C7028BB
:1059D00035D147480078401B401F085C6F282ED106
:1059E00043480078401B001F085C722827D14048BC
:1059F0000078401BC01E085C742820D100240AE0F7
:105A00003B480078401B401E00193A49085C464953
:105A10000855601CC4B2AC42F2DB00204249485534
:105A2000681CC4B204E0FF203F490855601CC4B2A2
:105A3000142CF8DB01263C493CA0FFF751F9012E5C
:105A40004DD101213C48FCF76BF86420FFF75CFA6C
:105A5000142229493848FCF791F814222A4936487B
:105A60001430FCF78BF814222B4933482830FCF70C
:105A700085F814222C4930483C30FCF77FF850213F
:105A80002D48FCF763F8002417E02C48005D1A4904
:105A90000855204614302949085C1B490855204602
:105AA00028302649085C1C49085520463C302349CB
:105AB000085C1D490855601CC4B2142CE5DB0E4976
:105AC0000EA0FFF70DF9104910A0FFF709F91249D0
:105AD00012A0FFF705F9144914A0FFF701F90020FF
